:020000040800F2
:100000005813002065010008251700089D08000806
:10001000211700083F0300088D5800080000000069
:10002000000000000000000000000000FD1B0008B0
:100030004303000800000000D11700087D010008FC
:100040007F0100087F0100087F0100087F01000890
:100050007F0100087F0100087F01000845030008B8
:100060007F0100087F0100087F0100087F01000870
:100070007F0100087F0100087F0100087F01000860
:100080007F0100087F0100087F0100087F01000850
:100090007F0100087F0100087F0100087F01000840
:1000A0007F0100087F0100087F0100087F01000830
:1000B000951D00087F0100087F0100087F010008EE
:1000C0007F0100087F0100087F0100087F01000810
:1000D0007F010008AD1E00087F0100087F010008B5
:1000E0007F0100087F0100087F0100080000000078
:1000F0000000000000000000000000000000000000
:1001000000000000000000007F0100087F010008DF
:100110007F0100087F0100087F0100087F010008BF
:100120007F0100087F0100087F0100087F010008AF
:100130007F0100087F0100087F0100087F0100089F
:100140007F0100087F0100087F010008C117000837
:10015000DFF80CD000F04AF800480047115F0008B3
:10016000581300200648804706480047FEE7FEE790
:10017000FEE7FEE7FEE7FEE7FEE7FEE7FEE7FEE757
:10018000211D0008510100082DE9F05F05460020FF
:1001900092469B4688460646814640241BE02846F8
:1001A00041464746224600F042F853465A46C01A96
:1001B000914110D311461846224600F029F82D1A15
:1001C00067EB01084F4622460120002100F020F88D
:1001D00017EB00094E41201EA4F10104DFDC484664
:1001E00031462A464346BDE8F09F0000064C074DC5
:1001F00006E0E06840F0010394E8070098471034F7
:10020000AC42F6D3FFF7A8FFF48C0008148D000869
:10021000202A04DB203A00FA02F1002070479140C6
:10022000C2F1200320FA03F3194390407047202ABB
:1002300004DB203A21FA02F00021704721FA02F390
:10024000D040C2F12002914008431946704770B572
:100250008C1810F8015B15F0070301D110F8013B71
:100260002A1106D110F8012B03E010F8016B01F8F8
:10027000016B5B1EF9D12B0705D40023521E0DD450
:1002800001F8013BFAE710F8013BCB1A921C03E09E
:1002900013F8015B01F8015B521EF9D5A142D8D3D6
:1002A000002070BD70B505460C4608480560204624
:1002B00000F00EF800BF054800680028FBD10021BF
:1002C0004FF0804001F079FD70BD00000400002077
:1002D0003EB5044600214FF0804001F06EFD002243
:1002E0000121880701F086FD022C03D10B20ADF817
:1002F000040005E0012C03D142F6DF60ADF80400F4
:100300000520ADF800000020ADF80600ADF80200B1
:1003100069464FF0804001F077FD0121880701F028
:1003200049FD0121880701F039FD0122114690079E
:1003300001F060FD0121880701F03FFD3EBD00BFD7
:10034000FEE7704710B5022000F012F838B10449FA
:10035000D1F8801048698047022000F003F810BDF2
:10036000F8060020014908607047000014040140AD
:10037000014600200022074B1B6803EA0102054BDF
:1003800014331B680B4013B10AB1012000E00020B8
:100390007047000000040140002123498279002AAF
:1003A0003AD00A46126803689A430B461A600A1D3F
:1003B000126803689A430B1D1A60027911440A6897
:1003C00003681A430A60184A0832126803689A439D
:1003D000154B08331A601A1D126803689A43124BB2
:1003E0000C331A604279102A0ED11A1F1268036862
:1003F0001A430D4B08331A601A1D126803681A431A
:10040000094B0C331A600DE00749427911440A6820
:1004100003681A430A6005E0027911440A68036818
:100420009A430A60704700000004014030B5002282
:100430008B071C0F0F2303FA04F20B4B8C1053F89D
:1004400024309343084C8D1044F8253023468C10FB
:1004500053F824308C07240F00FA04F42343024C91
:100460008D1044F8253030BD080001402DE9F041E1
:10047000024600250026002000230024002791F8D2
:1004800003C00CF00F0591F803C00CF0100CBCF188
:10049000000F03D091F802C04CEA050591F800C0A6
:1004A000BCF1000F31D0146800202BE04FF0010C9C
:1004B0000CFA00F3B1F800C00CEA03069E4220D10A
:1004C00083004FF00F0C0CFA03F7BC4305FA03FC52
:1004D0004CEA040491F803C0BCF1280F06D14FF098
:1004E000010C0CFA00FCC2F814C00AE091F803C039
:1004F000BCF1480F05D14FF0010C0CFA00FCC2F81A
:1005000010C0401C0828D1D31460B1F800C0BCF161
:10051000FF0F34DD546800202EE000F1080C4FF08E
:10052000010808FA0CF3B1F800C00CEA03069E4279
:1005300021D183004FF00F0C0CFA03F7BC4305FAEE
:1005400003FC4CEA040491F803C0BCF1280F05D168
:1005500000F1080C08FA0CF8C2F8148091F803C0F6
:10056000BCF1480F07D100F1080C4FF0010808FA60
:100570000CF8C2F81080401C0828CED35460BDE8A7
:10058000F0810000F0B50A46002300240021002578
:1005900000F00046B6F1004F02D11D4EF16901E0B6
:1005A0001B4E7168C0F3034583B200F44016B6F5E4
:1005B000401F08D121F07061154E766826F07066F4
:1005C000134F7E6012E000F48016B6F5801F06D14E
:1005D000032606FA05F4A14341F0706106E0460DDA
:1005E000360103FA06F6B14341F0706122B1460DBF
:1005F000360103FA06F6314300F00046B6F1004F2B
:1006000002D1034EF16101E0014E7160F0BD0000C6
:10061000000001400246002093680B400BB101200E
:1006200000E00020704741617047016170470AB1E6
:10063000016100E04161704701464869806880B20D
:10064000704708B50146D1F8CC00006800900098CA
:10065000C0F3414008BD024602F29F30405C704743
:1006600070B504460E4600250021C4F8101300BFE3
:100670000BE0002104F5467040F825103C3040F8AE
:1006800025103C304155681CC5B20F2DF1DB082107
:10069000A4F8B6133146204604F022F8204603F0B1
:1006A00015FC204603F0DCFA0121204604F080F816
:1006B000204603F068FB204603F061FC002070BD7B
:1006C0000146D1F8100370470146D1F81403704772
:1006D00010B50446204603F0E2FF002010BD70B5BF
:1006E00004460D46002104F29F304155113000EBC5
:1006F000451041612946204603F080FE70BD10B5CB
:1007000004464FF4FC6000F033FD4FF4FC6000F051
:1007100015FD24B1012C09D0022C15D10DE00A23BE
:100720001822DC21C92000F05BFA0DE00A23182210
:100730007421C92000F054FA06E00A231822A621E9
:10074000C92000F04DFA00BF00BF10BD10B504462F
:100750004FF6FF7000F00CFD4FF6FF7000F0EEFC5E
:1007600024B1012C09D0022C15D10DE00A23182246
:10077000DC21C92000F034FA0DE00A23182274218C
:10078000C92000F02DFA06E00A231822A621C9206C
:1007900000F026FA00BF00BF10BD000070B504468F
:1007A0000D464FF4FC6000F0E3FC002000F0C6FCB6
:1007B0000CB9002D69D0204604EBD071334A128861
:1007C00002EB610109B2314A1180284605EBD07174
:1007D0002F4A128802EB610109B22D4A118010469E
:1007E000B0F900004E2802DD4E201146088027484F
:1007F000B0F90000762802DD7620244908802448DC
:10080000B0F90000022802DA0220214908801F48BE
:10081000B0F90000022802DA02201C4908801D48B5
:10082000008880B11C48008868B11A4AB2F90020DB
:10083000C2F1DC0291B2184A12786432D0B220229E
:1008400000F032F90AE01348008838B912480088ED
:1008500020B92022DB21652000F026F90B4AB2F9ED
:100860000020C2F1DC0291B2094A12786432D0B29F
:10087000782200F019F90548B0F900000549088010
:100880000348B0F900000449088070BD58000020FA
:100890005A0000205C0000205E00002000BFFEE740
:1008A0002DE9F04105460020474908704749087086
:1008B00047490870474908702878022802D02878EC
:1008C000202803D101204449087002E00020424959
:1008D00008704FF0000802240CE0285D012805D0C4
:1008E000285D022802D0285D032801D14FF00108BD
:1008F000601CC4B2082CF0DBB8F1010F01D1BDE8D7
:10090000F0810020304908703049087002242AE044
:10091000285D30B3285D31492B4A127888542A4823
:100920000078401C28490870002607E0285D2C4903
:10093000895D884200D105E0701CC6B22448007869
:100940008642F3DB00BF22480078864209D1285D49
:1009500024491E4A127888541C480078401C1B49C0
:100960000870601CC4B2082CD2DB1848007801283B
:1009700017D11C48007817490870174800780128DB
:1009800005D119480978405C18490F5C05E0164804
:1009900010490978405C16490F5C384604F090FE17
:1009A00002E000200B4908700748007808490870E9
:1009B000002405E00948005D09490855601CC4B2DF
:1009C000062CF7DB00BF9AE7340100203501002038
:1009D00036010020330100202001002021010020E9
:1009E0002D01002027010020088B0008728C0008D0
:1009F000F08B000810B504F007FE10BD70B5054679
:100A0000002440F23F11002000F0A0FB00F0EEFDBA
:100A100000BF03E0284600F0BDFD641CB4F5963F1E
:100A2000F8D301220421024800F034F870BD000020
:100A3000000C014070B5054640F23F1409E0202249
:100A40002146284600F030F8064800688088201AC1
:100A500084B2601C80B20349096889888842EEDA52
:100A600070BD0000BC00002008B50121082000F086
:100A7000E1FE0420ADF8000003208DF802001020F4
:100A80008DF8030069460248FFF7F0FC08BD00003E
:100A9000000C014070B504460D4616463246294604
:100AA0002046FFF7C4FD70BD70B505460E461446DE
:100AB000A4F12000C4B20748006801680548006836
:100AC000C088604301EB40023146284600F02AF816
:100AD00070BD0000BC00002070B506460C4640F218
:100AE0003F150AE0227829463046FFF7DDFF0C4823
:100AF00000688088281A85B2641C681C80B2084986
:100B000009688988884201DB012000E00020217803
:100B100009B1012100E0002108400028E2D170BDA8
:100B2000BC0000202DE9F047074689461646002400
:100B30000025A046B8464946404600F007FB00BFE6
:100B40003EE000F053FD002527E021480068808842
:100B50000C2190FBF1F0C10080208840284136F83C
:100B60001410084020B91A48006880880C280ADD53
:100B700036F814000121A940084048B9144800681B
:100B800080880C2804DD1348008800F003FD03E092
:100B90001148008800F0FEFC6D1C0D48006880883C
:100BA000A842D2D8012204210C48FFF773FF08F1B4
:100BB000010000F0FF084946404600F0C7FA641CF7
:100BC00003480068C088A042BBD8BDE8F087000099
:100BD000BC000020C2000020C0000020000C01402A
:100BE0002DE9F04104460E4617461D461E48008872
:100BF00000F0BEFAE0B200233A46314600F038F881
:100C00006119C8B200233A46314600F031F8E0B22B
:100C100001232A46314600F02BF8F21B521C91B2F8
:100C2000E0B201232A4600F023F8B81E87B2681EFE
:100C300085B2701E86B20D48008800F099FA08E06F
:100C4000611C89B20C46C8B200233A46314600F016
:100C50000FF8281EA5F101018DB2F1D102480088DC
:100C600000F086FABDE8F081C0000020C20000203C
:100C70002DE9F0410646884615461F4600244146A8
:100C8000304600F063FA87B900F0B0FC00BF04E022
:100C90000E48008800F07EFC641CAC42F8D30122B0
:100CA00004210B48FFF7F6FE0EE000240AE0074897
:100CB000008800F08BFC701CC6B24146304600F044
:100CC00045FA641CAC42F2D3BDE8F081C0000020BC
:100CD000000C01402DE9F04105460E4617461C4622
:100CE0000023224631462846FFF7C2FFE919C8B261
:100CF000002322463146FFF7BBFF01233A46314627
:100D00002846FFF7B5FF301B401C81B201233A464D
:100D10002846FFF7ADFFBDE8F081000001480068FC
:100D200070470000BC00002070B50024FFF7F6FFFC
:100D3000054600BF07E0A979E21C5143C8B2FFF79E
:100D400079FE601CC4B20D2CF5DB00F001F870BD1B
:100D50004FF6FF700C49088000200C4908800C49B0
:100D600008800C4908800C4908800C490880012043
:100D70000B49087000200B4908700B4908700B499B
:100D800008700B4908807047600000206200002056
:100D90006400002066000020680000206A00002037
:100DA0006C0000206D0000206E0000206F0000200D
:100DB0007000002010B5FFF7CBFF0020FFF71EFEEC
:100DC00010BD70B58AB006461F2000F0B7F9FFF7D6
:100DD000A5FF0446002504E020200DF80500681C4E
:100DE000C5B2A0884FF4A07191FBF0F0401EA8425C
:100DF000F2DCA08891FBF0F0401E00220DF80020EC
:100E0000E188C1F1F001C8B26946FFF765FEE188EB
:100E1000C1F1F001C8B23146FFF75EFE002000F0DC
:100E20008DF90AB070BD00002DE9F04188B006468A
:100E30000025B04600E06D1C18F8011B0029FAD10E
:100E40001A2D00D91A25002403E0202001A90855F5
:100E5000641C1B2CF9D3002407E0305DC5F11B0195
:100E600004EB510101AA5054641CAC42F5D300209C
:100E7000FFF7C4FD104800F075F9FFF74FFF074674
:100E80004FF6FF7000F074F91F2000F057F90020B2
:100E9000FFF7D0FDB87901A9FFF71EFEB979490621
:100EA000080EFFF7C7FD002000F048F9034800F0E6
:100EB00059F908B0BDE8F081A4000020AC00002082
:100EC0002DE9F04100240027A0460025FFF726FF6A
:100ED0000646324800880C2826DA30480088304917
:100EE0000988884220DB2D490988214401EB011142
:100EF00001EB41012B4A02EB4101B1F8640000F023
:100F000037F9264A1278D21CB3795A43D0B2234A11
:100F10001288224402EB021202EB4202214B03EB45
:100F20004201FFF7D9FD36E01C4800881C490988BA
:100F3000884204DA194800880D3087B201E017486A
:100F40000788A7F10C001FFA80F8002421E004EBC9
:100F500008000D2190FBF1F201FB120085B205EBB8
:100F6000051101EB41010F4A02EB4101B1F86400A8
:100F700000F0FEF805EB051202EB4202094B03EB11
:100F80004201B279E31C5A43D0B2FFF7A5FD601CC1
:100F9000C4B20D2CDBDBBDE8F08100006600002050
:100FA000640000207C07002070B506460024002560
:100FB000344800884FF6C771084032490880084617
:100FC000008840F008000880304600F041FB7320A4
:100FD00000F064FB00BF16E0FF212A4800F05CFD32
:100FE00000BF8021274800F04BFD0028F9D100BF49
:100FF0000121244800F044FD0028F9D0214800F0E8
:1010000048FD681CC5B2052DE6DBFF211D4800F038
:1010100043FD00BF80211B4800F032FD0028F9D1BC
:1010200000BF0121174800F02BFD0028F9D015481A
:1010300000F02FFD0446FF21124800F02DFD00BFF7
:101040008021104800F01CFD0028F9D100BF0121CB
:101050000C4800F015FD0028F9D00A4800F019FDF1
:10106000E1B240EA0124012204210748FFF712FD02
:10107000044800884FF6C77108400249088020469E
:1010800070BD0000003C0040000C014000B587B07E
:101090000121112000F0CEFB01212548FFF772FA53
:1010A0000121C80300F0A6FB4FF48060ADF80400F6
:1010B00003208DF8060018208DF8070001A91D48AF
:1010C000FFF7D4F94FF40060ADF8040001A9194806
:1010D000FFF7CCF94FF48050ADF8040001A9154892
:1010E000FFF7C4F9144800F09FFC0020ADF8080099
:1010F0004FF48270ADF80A000020ADF80C00022019
:10110000ADF80E000120ADF810004002ADF812005D
:101110000020ADF81400ADF8160002A9064800F052
:10112000BDFC0121044800F073FC07B000BD0000C5
:101130000011200000100140003C004001B5BDF846
:1011400000000149088008BDC200002070B50446B7
:101150000D462146202000F051FA2946212000F0BA
:101160004DFA70BD0149086070470000BC000020C6
:1011700001B5BDF800000149088008BDC00000208D
:1011800008B500200090FFF76FFCFFF77FFF0520F8
:1011900004F0E8FD0020FFF707FF009049F220313E
:1011A000009888427ED14FF40041E52000F026FAF5
:1011B0000121002000F022FA4FF48071012000F09C
:1011C0001DFA4FF4E061022000F018FA41F23001FC
:1011D000032000F013FA0021042000F00FFA40F27F
:1011E0000221082000F00AFA0021092000F006FA86
:1011F00000210A2000F002FA00210C2000F0FEF984
:1012000000210D2000F0FAF900210F2000F0F6F97E
:101210000021102000F0F2F90021112000F0EEF979
:101220000021122000F0EAF90021132000F0E6F975
:10123000142004F097FD41F2B071102000F0DEF9A7
:1012400040F23711112000F0D9F9052004F08AFD91
:1012500040F23911122000F0D1F9052004F082FD8E
:101260004FF4E851132000F0C9F91321292000F0B0
:10127000C5F9052004F076FD0021202000F0BEF91C
:101280000021212000F0BAF90621302000F0B6F943
:1012900040F20111312000F0B1F90321322000F0B9
:1012A000ADF900E07BE04FF48371352000F0A6F942
:1012B00040F60231362000F0A1F940F20231372029
:1012C00000F09CF940F20771382000F097F90721EF
:1012D000392000F093F94FF4C0613C2000F08EF902
:1012E00040F20B213D2000F089F90021502000F050
:1012F00085F9EF21512000F081F90021522000F002
:101300007DF940F23F11532000F078F94FF41C5161
:10131000602000F073F90121612000F06FF90021D5
:101320006A2000F06BF90021802000F067F90021AD
:10133000812000F063F90021822000F05FF9002194
:10134000832000F05BF90021842000F057F9002190
:10135000852000F053F91021902000F04FF9002172
:10136000922000F04BF90321932000F047F94FF44D
:101370008871952000F042F90021972000F03EF995
:101380000021982000F03AF941F21801032000F002
:1013900035F940F27311072000F030F9F9E049F215
:1013A000253100988842F9D10121002000F026F96A
:1013B0004FF48071012000F021F94FF4E061022028
:1013C00000F01CF941F21801032000F017F9002188
:1013D000042000F013F940F20221082000F00EF979
:1013E0000021092000F00AF900210A2000F006F986
:1013F00000210C2000F002F900210D2000F0FEF881
:1014000000210F2000F0FAF80021102000F0F6F87B
:101410000021112000F0F2F80021122000F0EEF877
:101420000021132000F0EAF8142004F09BFC41F2A4
:10143000B071102000F0E2F840F23711112000F0F6
:10144000DDF8052004F08EFC40F23911122000F086
:10145000D5F8052004F086FC4FF4E851132000F085
:10146000CDF81321292000F0C9F8052004F07AFCFA
:101470000021202000F0C2F80021212000F0BEF859
:101480000721302000F0BAF840F20231312000F09C
:10149000B5F840F20511322000F0B0F840F2062114
:1014A000352000F0ABF840F60801362000F0A6F831
:1014B00040F20621372000F0A1F840F20451382014
:1014C00000F09CF80721392000F098F840F205114F
:1014D0003C2000F093F840F608013D2000F08EF823
:1014E0000021502000F08AF8EF21512000F086F80A
:1014F0000021522000F082F840F23F11532000F00A
:101500007DF84FF42741602000F078F80121612038
:1015100000F074F800216A2000F070F800218020AB
:1015200000F06CF80021812000F068F80021822092
:1015300000F064F80021832000F060F8002184208E
:1015400000F05CF80021852000F058F81021902070
:1015500000F054F80021922000F050F8032193206D
:1015600000F04CF84FF48871952000F047F8002106
:10157000972000F043F80021982000F03FF841F256
:101580001801032000F03AF840F23311072000F070
:1015900035F808BD10B5044621120B4800F07CFA5E
:1015A00000BF8021084800F06BFA0028F9D1E1B2B1
:1015B000054800F071FA00BF8021034800F060FA8E
:1015C0000028F9D110BD0000003C004010B50446D1
:1015D00000F00CF82046FFF7DDFF0122042102484D
:1015E000FFF758FA10BD0000000C014010B5222092
:1015F00000F02EF8722000F051F810BD70B50546CD
:101600000C46284600F024F8722000F047F821121A
:101610000D4800F041FA00BF80210B4800F030FA7D
:101620000028F9D1E1B2084800F036FA00BF802165
:10163000054800F025FA0028F9D1012204210348C9
:10164000FFF728FA70BD0000003C0040000C01408C
:1016500010B50446702000F021F800210D4800F07C
:101660001BFA00BF80210B4800F00AFA0028F9D1CC
:101670002146084800F010FA00BF8021054800F01C
:10168000FFF90028F9D1012204210348FFF702FAEB
:1016900010BD0000003C0040000C014010B50446A5
:1016A000002204210748FFF7F5F92146064800F01B
:1016B000F3F900BF8021044800F0E2F90028F9D1D5
:1016C00010BD0000000C0140003C004008B50121A5
:1016D000102000F0AFF84120ADF8000003208DF895
:1016E000020010208DF8030069460248FEF7BEFE96
:1016F00008BD00000010014010B5044620780549DF
:10170000C87060780870A0784870084604F08EF8B9
:1017100010BD00003801002010B504F023F810BD02
:1017200000BFFEE77047000070B5002100230F22C4
:10173000C47804B3154C246804F4E064C4F5E06490
:10174000210AC1F10403CA40447804FA03F1847801
:101750001440214309010E4C0678A155047804F089
:101760001F050124AC4005786D11AD0005F1E025A1
:10177000C5F8004109E0047804F01F050124AC40DD
:10178000044D0678761145F8264070BD0CED00E05A
:1017900000E400E080E100E002490143024A1160F8
:1017A000704700000000FA050CED00E0024A0A4014
:1017B0000243024B1A60704780FFFF1F08ED00E0F4
:1017C00010B5024801F072FC10BD00004801002075
:1017D0007047000029B1064A52690243044B5A611E
:1017E00004E0034A52698243014B5A61704700008A
:1017F0000010024029B1064AD2690243044BDA6163
:1018000004E0034AD2698243014BDA617047000069
:101810000010024029B1064A12690243044B1A61C2
:1018200004E0034A12698243014B1A6170470000C9
:101830000010024029B1064A92690243044B9A61A2
:1018400004E0034A92698243014B9A6170470000A9
:101850000010024029B1064AD2680243044BDA6004
:1018600004E0034AD2688243014BDA60704700000B
:10187000001002402DE9F041002100220025002344
:101880000026002400278C46DFF86081D8F8048009
:1018900008F00C0121B1042907D0082959D109E029
:1018A000DFF84C81C0F8008058E0DFF84881C0F8CC
:1018B000008053E0DFF83481D8F8048008F4701217
:1018C000DFF82881D8F8048008F48035920C0D2ABE
:1018D00001D0921C00E0062235B9DFF81C8102FB22
:1018E00008F8C0F8008033E0DFF80081D8F82C80D9
:1018F00008F48036DFF8F480D8F82C8008F00F0860
:1019000008F1010446B9DFF8EC80B8FBF4F808FBF5
:1019100002F8C0F800801BE0DFF8D080D8F82C80F7
:10192000C8F3031808F10107DFF8C080D8F82C804D
:10193000C8F3032808F1020CDFF8B880B8FBF7F809
:1019400008FB0CF8B8FBF4F808FB02F8C0F80080BC
:1019500004E0DFF89C80C0F8008000BF00BFDFF823
:101960008C80D8F8048008F0F0010909DFF88C8039
:1019700018F80130D0F8008028FA03F8C0F8048085
:10198000DFF86880D8F8048008F4E061090ADFF81D
:101990006C8018F80130D0F8048028FA03F8C0F8F9
:1019A0000880DFF84880D8F8048008F46051C90A3C
:1019B000DFF8488018F80130D0F8048028FA03F8DE
:1019C000C0F80C80DFF82480D8F8048008F4404187
:1019D000890BDFF82C8018F80130D0F80C80B8FBA8
:1019E000F3F8C0F81080BDE8F0810000001002405C
:1019F00000127A0040787D0100093D00C4000020FB
:101A0000D40000200149086070470000D80042421D
:101A100021B1028842F04002028004E002884FF6C1
:101A2000BF731A400280704710B5044611488442C3
:101A300008D101218014FFF70DFF0021A014FFF74A
:101A400009FF16E00C48844208D101210014FFF779
:101A5000E1FE00212014FFF7DDFE0AE00748844282
:101A600007D10121C013FFF7D5FE0021E013FFF7D6
:101A7000D1FE10BD0030014000380040003C004065
:101A80000246002013890B400BB1012000E000202A
:101A900070470146888970478181704710B50022E0
:101AA000028802F441520B884C8823438C882343DC
:101AB000CC8823430C8923434C8923438C892343BB
:101AC000CC8923431A430280838B4FF2FF74234057
:101AD00083830B8A038210BD10B5FFF751FB0248C8
:101AE000FFF740FB10BD00009C00002038B5044605
:101AF0000B4951F824000121FFF79CFE094830F8FA
:101B00001400ADF8000010208DF8030003208DF8BC
:101B10000200054951F824006946FEF7A7FC38BDCC
:101B2000EC600008E46000087400002010B5044672
:101B3000044A32F81410044A52F82400FEF76AFDF1
:101B400010BD0000FC600008840000207FB5044642
:101B50000D46234951F8241041F001000121FFF7FF
:101B600069FE04208DF80F001E4830F81400ADF80F
:101B70000C001D4951F8240003A9FEF777FC012D44
:101B80002CD11A4A12F81410194A12F81400FEF750
:101B90004DFC184830F81400019000208DF8080022
:101BA0001CB10C208DF8090002E008208DF8090016
:101BB00001208DF80A0001A8FEF7EEFB0E4810F890
:101BC00014008DF800000F208DF801008DF8020040
:101BD00001208DF803006846FFF7A6FD7FBD0000D9
:101BE00004610008FC600008840000201C610008FB
:101BF000166100081061000822610008704710B5E6
:101C000000F002F810BD00000CB50020019000901B
:101C10003F48006840F480303D49086000BF3C48C0
:101C2000006800F4003000900198401C019000987A
:101C300018B90198B0F5A06FF1D13548006800F4EB
:101C4000003010B10120009001E0002000900098C9
:101C500001285CD12F48006840F010002D49086031
:101C60000846006820F0030008600846006840F05D
:101C700002000860264840682549486008464068D8
:101C800048600846406840F4806048600846C06A82
:101C9000214908401E49C8620846C06A1F490843D6
:101CA0001B49C8620846006840F08060086000BFB9
:101CB0001748006800F000600028F9D01448406818
:101CC00020F47C10124948600846406840F4E8104F
:101CD00048600846006840F08070086000BF0C480B
:101CE000006800F000700028F9D00948406820F032
:101CF0000300074948600846406840F00200486019
:101D000000BF0348406800F00C000828F9D10CBD62
:101D1000001002400020024000F0FEFF44060100D7
:101D200010B51848006840F00100164908600846E0
:101D3000406815490840134948600846006813493F
:101D40000840104908600846006820F480200860B8
:101D50000846406820F4FE0048600846006820F00D
:101D6000A05008604FF47F0088600020C8624FF4E4
:101D70001F008860FFF743FF4FF0006004490860D0
:101D800010BD0000001002400000FFF0FFFFF6FE53
:101D900008ED00E010B501F039FF10BD21B1028857
:101DA00042F08002028004E002884FF67F731A40FE
:101DB00002807047CA430282704721B1028842F014
:101DC0000102028004E002884FF6FE731A4002808E
:101DD000704730B50246002000230024158A05EA2A
:101DE0000103958905EA010413B10CB1012000E05B
:101DF000002030BD1AB183890B43838102E08389BF
:101E00008B43838170470000002202881D4B98425B
:101E10000ED01D4B98420BD0B0F1804F08D01B4B19
:101E2000984205D01A4B984202D01A4B984204D1DE
:101E30004FF68F731A404B881A43174B984207D0BE
:101E4000164B984204D04FF6FF431A40CB881A43F2
:101E500002808B8883850B8803850A4B98420BD0C0
:101E6000094B984208D00E4B984205D00D4B984232
:101E700002D00D4B984201D10B7A03860123838255
:101E800070470000002C0140003401400004004075
:101E900000080040000C004000100040001400400A
:101EA00000400140004401400048014010B540F2AC
:101EB0002551044800F08DF818B1024800F044F9AB
:101EC000C4B210BD0038014010B586B004460121EF
:101ED0008803FFF7AFFC01210520FFF7ABFC4FF4AF
:101EE0000070ADF8140018208DF8170003208DF84D
:101EF000160005A92548FEF7B9FA4FF48060ADF841
:101F0000140004208DF8170003208DF8160005A991
:101F10001E48FEF7ABFA01940020ADF80800ADF8BA
:101F20000A00ADF80C00ADF810000C20ADF80E0062
:101F300001A9174800F09CF8012240F225511448ED
:101F400000F071F80121124800F037F840F22661E4
:101F50000F4800F023F825208DF8000000208DF8B0
:101F600001008DF8020001208DF803006846FFF79C
:101F7000DBFB00BF4FF480410648FEF754FB802195
:101F80000548FEF750FB00BF06B010BD0008014039
:101F900000380140000C01400010014010B5002243
:101FA000002340F66A14A14200D100BF0A120124A6
:101FB0009440A3B2DC43048010BD21B1828942F475
:101FC0000052828104E082894DF6FF731A408281BB
:101FD000704770B50246002400230025002040F61B
:101FE0006A16B14200D100BFC1F3421501F01F03D0
:101FF000012606FA03F3012D02D19689334006E04B
:10200000022D02D1168A334001E0968A33400C1229
:10201000012606FA04F41688344013B10CB10120ED
:1020200000E0002070BDF0B5034600240026002526
:10203000002040F66A17B94200D100BF1846C1F32C
:10204000421401F01F06012707FA06F5012C01D101
:102050000C3004E0022C01D1103000E014301AB131
:1020600007682F43076002E00768AF430760F0BDD1
:102070002DE9F04786B005460E460024A24600BF73
:10208000A1460027B08900B100BF2F462C8A4CF62C
:10209000FF700440F08804432C82AC894EF6F310A4
:1020A0000440B08831890843718908430443AC81F6
:1020B000AC8A4FF6FF400440B0890443AC8201A8CB
:1020C000FFF7D8FB1F48874202D1DDF810A001E0DE
:1020D000DDF80CA0A88900F4004040B10AEBCA006A
:1020E00000EB0A1031684900B0FBF1F807E00AEB99
:1020F000CA0000EB0A1031688900B0FBF1F86420D7
:10210000B8FBF0F004012009642101FB1089A889C3
:1021100000F4004040B1322000EBC900B0FBF1F008
:1021200000F00700044308E0322000EB09106421AE
:10213000B0FBF1F000F00F0004432C8106B0BDE8C5
:10214000F08700000038014001468888C0F308008D
:10215000704770B505460E46284600F06DF90446F6
:102160004FF6FF70844205D046F4004105F5B26099
:1021700020F81410E0B270BD2DE9F04105460C4680
:1021800016461F4602212175012161750021E18259
:102190002683618306F08000802805D105F56C70E8
:1021A00000EB4710017605E0002105F56C7000EBAF
:1021B0004710417600231A462146284600F02BF8A6
:1021C000BDE8F08101460122C1F8102300207047CC
:1021D0002DE9F04105460E4617461C46012105F53E
:1021E0006C7000EB44108170022105F56C7000EBFF
:1021F0004410017205F56C7000EB4410C66005F5E3
:102200006C7000EB4410076121462846FEF767FA20
:102210000020BDE8F0812DE9F04180460C461546CE
:102220001E460127E078012802D0022820D108E0CC
:1022300032462946204601F03CFA0220E070012790
:1022400017E0207F0D2805D10120E07000212177C3
:1022500000270CE0207F0B2803D10120E07002272B
:1022600005E0207F0C2802D10120E070032700E068
:1022700000BF00BF3846BDE8F0812DE9F0410546BA
:102280000F4616461C46002105F56C7000EB441005
:10229000817005F56C7000EB4410C76005F56C703B
:1022A00000EB441006612EB9012105F56C7000EBBE
:1022B0004410417605F56C7000EB4410407E30B957
:1022C000002105F56C7000EB4410017205E002215D
:1022D00005F56C7000EB4410017221462846FEF7AC
:1022E000FEF90020BDE8F08170B505460E461446A3
:1022F000002105F56C7000EB44108170032105F599
:102300006C7000EB4410017205F56C7000EB44102A
:10231000C660082105F56C7000EB44100161214690
:102320002846FEF7DCF9C0B270BD0246022106E085
:10233000002302F5B26020F81130481CC1B2082910
:10234000F6DB0020704770B505460C460020207073
:102350006070A0700120E070012121774021A171FF
:10236000002084F8200001212120015521792846F0
:1023700000F031F86179284600F02DF8002070BD9A
:1023800010B504460021204601F0F0FB0020E16872
:102390008861401EE1684861204601F097FD0021F8
:1023A000C4F81013002010BD70B504460D46052D6D
:1023B00001D0042D06D1D4F88010486C80470C2041
:1023C000207007E0062D05D10C202070D4F8801075
:1023D0000868804770BD0246082909DA02F5B26034
:1023E00030F81100C0F30E0302F5B26020F811308E
:1023F000002070472DE9F04780460C4616461D46E2
:10240000DDE9089746F08001217506216175E582B6
:1024100005F47F40B0F5407F03D140F209412183AC
:1024200001E00021218367833B464A46214640461E
:10243000FFF7F1FEBDE8F0870246002100BF0AE089
:1024400002F5B26030F8110000F4004008B9084607
:102450007047481CC1B20829F2DB4FF6FF70F7E75E
:1024600010B502460B88147823440B801378981813
:1024700010BD00002DE9FC4704460D4616464FF0FE
:10248000000804F588704FF4007300222946CDE956
:1024900000062046FFF7AEFFB0F100091BD10AE0AD
:1024A00004F5887010F808000C4901F8080008F1DC
:1024B00001001FFA80F8B045F2DB04F5887305F1DE
:1024C000500205F13E0105F13400009600F090FE47
:1024D000074607B1B9464846BDE8FC87AA0C00206C
:1024E0002DE9FC4104460D46164604F588704FF46C
:1024F000807300222946CDE900062046FFF77AFFC7
:10250000071E06D1324604F5887105F1220000F05D
:1025100007FF3846BDE8FC812DE9FC4104460E4624
:10252000154604F588704FF4045301223146CDE975
:1025300000052046FFF75EFF07463846BDE8FC81F0
:102540002DE9FC4104460E46154604F588704FF40B
:10255000085301223146CDE900052046FFF74AFF26
:1025600007463846BDE8FC812DE9FC47044688460D
:1025700015461E460A9F04F5887045F440730022F4
:102580004146CDE900072046FFF734FFB0F10009CE
:1025900005D13A46314604F5887000F025FF4846DB
:1025A000BDE8FC872DE9F04104460D462F464FF06B
:1025B00001080126254890F84500052841D2DFE8AA
:1025C00000F003140420340000BF092239462046DD
:1025D000FFF7A2FF40B904F588711D4800F0DCFE4A
:1025E00001201A4981F845002CE019480289394632
:1025F0002046FFF7A5FF18B90320144981F84500CC
:1026000020E000231A463946204601F022F806460B
:1026100026B904200D4981F8450005E0032E03D1B9
:1026200004200A4981F845000CE000223946204682
:1026300001F027F820B90020044981F845008046C0
:1026400000E000BF00BF4046BDE8F081AC0E0020B6
:10265000480F00202DE9F04105460C46264600278C
:102660003B4890F8420030B1032817D004280BD023
:10267000052867D129E03649096D0868804704209C
:10268000334981F8420000BF284601F0BEFF01280F
:1026900003D103202E4981F8420054E02C4890F8E1
:1026A000403090F846200146284600F091FC012079
:1026B000284908700520264981F842002846FDF780
:1026C000BBFF2349A1F84C003DE02846FDF7B4FFCD
:1026D0001F49B1F84C10401A1D49B1F84A10884200
:1026E00004D303201A4981F842002AE0184890F8E0
:1026F00040102846FDF7AFFF01280CD1154800789F
:1027000001281ED10020134908701148006D41684E
:102710000F48884715E00E4890F840102846FDF70E
:102720009AFF04280DD10A4890F8403090F84820CC
:1027300031462846FFF720FD18B90320044981F8E7
:10274000420000E000BF00BF3846BDE8F081000055
:10275000AC0E00200401002070B504460D4616485A
:1027600090F8400078B1144890F84010204601F0ED
:10277000DCFC114890F840102046FFF72CFE0020AA
:102780000D4981F840000C4890F8410078B10A48A2
:1027900090F84110204601F0C8FC074890F841101D
:1027A0002046FFF718FE0020034981F84100002071
:1027B0000249087070BD0000AC0E0020040100202A
:1027C0002DE9FC4707460E46344600254FF0010927
:1027D0000620974981F8420094F8440001287DD1F1
:1027E00094F84500012802D19248086506E094F863
:1027F0004500022802D190488D49086500208C4987
:1028000081F8420081F8450094F8520081F84800B0
:10281000B4F85400A1F8460094F85600A1F84A0014
:102820000846B0F84A000A2802DA0A20A1F84A004D
:1028300094F84200022802DC94F8420000E00220F2
:102840008046002552E004F1500000EBC50080787E
:1028500000F0800018B304F1500000EBC500807850
:10286000734981F8440004F1500000EBC500817801
:102870003846FFF76EFC6E4981F840000846B0F814
:1028800046000321CDE900102120035D94F82020AB
:10289000674890F84010384600F05CFC24E004F1F2
:1028A000500000EBC5008078614981F8430004F1D5
:1028B000500000EBC50081783846FFF74AFC5C49C0
:1028C00081F841000846B0F846000321CDE9001028
:1028D0002120035D94F82020554800E00DE090F899
:1028E0004110384600F036FC681CC5B24545AADBED
:1028F000002052490870814696E094F84300092868
:102900000ED14FF478404E4908804EA002F0C0FF2F
:102910004EA002F0BDFF4FF6FF70494908807FE0EE
:1029200094F8430002280ED14FF4784044490880BF
:1029300044A002F0ADFF4BA002F0AAFF4FF6FF70DB
:102940003F4908806CE094F8430008280ED14FF40A
:1029500078403B4908803BA002F09AFF50A002F06B
:1029600097FF4FF6FF703649088059E094F843000E
:1029700007280ED14FF478403149088031A002F089
:1029800087FF4FA002F084FF4FF6FF702C490880AC
:1029900046E094F843000B280ED14FF478402849C4
:1029A000088028A002F074FF4EA002F071FF4FF6DD
:1029B000FF702349088033E094F843000E280ED1BD
:1029C0004FF478401E4908801EA002F061FF4FA01E
:1029D00002F05EFF4FF6FF701949088020E094F87E
:1029E000430010280ED14FF478401549088015A0F7
:1029F00002F04EFF4EA002F04BFF4FF6FF70104961
:102A000008800DE04FF478400D4908800DA002F0D9
:102A10003FFF51A002F03CFF4FF6FF7008490880CD
:102A2000D4F88010086C80474846BDE8FC87000059
:102A3000AC0E0020180100203C0100200401002001
:102A4000600000204552524F523A200048756220E3
:102A50006973206E6F7420737570706F7274656423
:102A60002E0A0000436F6D6D756E69636174696F46
:102A70006E7320616E642043444320436F6E747212
:102A80006F6C20646576696365206973206E6F746E
:102A900020737570706F727465642E0A00000000F8
:102AA0004D534320646576696365206973206E6FBA
:102AB0007420737570706F727465642E0A00000064
:102AC0005072696E74657220646576696365206909
:102AD00073206E6F7420737570706F727465642EDE
:102AE0000A000000536D61727420436172642064B7
:102AF0006576696365206973206E6F7420737570E5
:102B0000706F727465642E0A000000005669646577
:102B10006F2064657669636520206973206E6F7429
:102B200020737570706F727465642E0A0000000067
:102B3000417564696F2F566964656F2044657669D5
:102B4000636573206973206E6F7420737570706F86
:102B5000727465642E0A00005468652061747461A3
:102B60006368656420646576696365206973206EB7
:102B70006F7420737570706F727465642E200A0014
:102B80002DE9F04106460C464FF0000800250021D3
:102B9000A174207F0C2878D2DFE800F077060F3D83
:102BA000466778939CC2D9F0627904F114013046EB
:102BB000FFF79AFB02212177F1E061793046FDF7BA
:102BC0004AFD0546012D1FD1207D00F08007608B56
:102BD00058B141F2883074490880802F02D1032116
:102BE00021770CE00521217709E032206E49088029
:102BF000802F02D10921217701E00721217730467A
:102C0000FDF71AFD208205E0032D03D10B2121776A
:102C10000521A174C3E02379A2893046A168FFF79A
:102C2000D7FA04212177BAE021793046FDF713FD68
:102C30000546012D01D109212177042D04D16078A9
:102C400020700C2121770FE0032D02D10B21217779
:102C50000AE03046FDF7F0FC218A401A5249098803
:102C6000884201D90B21217799E00121627906F58B
:102C70006C7000EB421041766379A2893046A168FE
:102C8000FFF7FBFA0621217789E087E0617930467A
:102C9000FDF7E1FC0546012D02D1072121770FE068
:102CA000042D04D1607820700C21217708E0022DDA
:102CB00002D10521217703E0032D01D10B212177DA
:102CC0006DE02379002211463046FFF781FA082192
:102CD000217764E021793046FDF7BDFC0546012DE2
:102CE00004D1607820700D21217718E0032D02D1E6
:102CF0000B21217713E03046FDF79EFC218A401A14
:102D000029490988884202D90B21217707E0042D3F
:102D100005D1607820700C2121774FF003083EE048
:102D2000617906F56C7000EB4110407E80F0010186
:102D3000627906F56C7000EB4210417663790022EF
:102D400011463046FFF799FA0A21217727E0617989
:102D50003046FDF780FC0546012D04D160782070D7
:102D60000D21217708E0022D02D10921217703E00E
:102D7000032D01D10B21217711E0FFE7A07B401C3F
:102D8000C1B2A173022902DC0121217705E00821EB
:102D9000A174607820704FF0020800E000BF00BF0F
:102DA0004046BDE8F0810000F400002070B592B00C
:102DB00005460C460126A0780A287BD2DFE800F001
:102DC0000525345A677B98B5D2DC0822214628466F
:102DD000FFF786FBC0B994F82910A1710120A070FB
:102DE000A0790021CDE90010617900231A46284618
:102DF00000F02AF9A0790021CDE900102179002303
:102E00001A46284600F020F9B9E012222146284649
:102E1000FFF766FB38B9D4F88000C16904F12200DD
:102E200088470220A070AAE001222146284600F02F
:102E3000EAFBF0B9022000F005FF0120A41CA077F6
:102E4000D4F87E10086A804703202070002000908C
:102E50000190A27FA1780346284600F0F5F80020F3
:102E600000900190A27FA41E61790346284600F0DD
:102E7000EBF884E0092221462846FFF7FBFA28B93F
:102E8000E08EB0F5806F01DC0420A07077E0E28E68
:102E900021462846FFF7EEFA58B9D4F8800004F12D
:102EA000500204F13E01436A04F1340098470520C2
:102EB000A07064E062E094F8300088B1FF200090D8
:102EC00094F8302002AB21462846FFF74DFB70B93D
:102ED000D4F88000816A02A888470620A07006E026
:102EE000D4F88000816A28A088470620A07046E0B8
:102EF00094F8310088B1FF20009094F8312002ABA3
:102F000021462846FFF730FB70B9D4F88000C16A2B
:102F100002A888470720A07006E0D4F88000C16AA4
:102F200019A088470720A07029E094F8320088B1E2
:102F3000FF20009094F8322002AB21462846FFF78C
:102F400013FB70B9D4F88000016B02A888470820F1
:102F5000A07006E0D4F88000016B0BA08847082021
:102F6000A0700CE094F839202146284600F05EFB62
:102F700008B90920A07002E0002600E000BF00BFF1
:102F8000304612B070BD00004E2F41002DE9F041D7
:102F900006460F4614461D46DDF81880304600F000
:102FA0000DFE002000F0C2FD21463046FFF7CBF9B0
:102FB000E567C4F8808039463046FDF751FBD4F808
:102FC000801008688047304600F0E2FDBDE8F081DF
:102FD0002DE9F04105460E4617461C46012105F530
:102FE0006C7000EB4410817005F56C7000EB4410C0
:102FF000C66005F56C7000EB4410076105F56C7058
:1030000000EB4410007E30B9002105F56C7000EB38
:103010004410017205E0022105F56C7000EB4410CC
:10302000017205F56C7000EB4410007E80F0010128
:1030300005F56C7000EB4410017621462846FDF73B
:103040004EFB0020BDE8F0812DE9F04704460D4617
:1030500017461E46DDE9089827B104F56C7000EBB1
:103060004510077004F56C7000EB4510C0884045B2
:1030700008D0B8F1000F05D004F56C7000EB4510D6
:10308000A0F8068004F56C7000EB4510C078B042E3
:1030900005D026B104F56C7000EB4510C6702946CA
:1030A000204601F08FF80020BDE8F08738B50546CE
:1030B000002400200090284601F0AFFA002847D0F5
:1030C000284601F0B4FA0090009808B9002038BDF5
:1030D0000098C0F3C00018B1284602F05FFA04431C
:1030E0000098C0F3001018B1284602F0A4F9044378
:1030F0000098C0F3401018B1284601F0D0FF0443F7
:103100000098C0F3806018B1284602F0FDF804432F
:103110000098C0F3406018B1284601F0AAFB0443B0
:103120000098C0F3006018B1284602F04FF804433D
:103130000098C0F3407018B1284601F061FB0443C9
:103140000098C0F3405018B1284601F06FFB0443CB
:103150002046BCE72DE9F04704460D4617461E46BB
:10316000DDE9088904F5B26010F8150000F07F0170
:1031700004F56C7000EB4510417004F5B26010F876
:103180001500C0F3C01104F56C7000EB45108170A0
:1031900004F56C7000EB4510077004F56C7000EBE3
:1031A000451080F8058004F56C7000EB4510A0F820
:1031B000069004F56C7000EB4510C670002104F514
:1031C0006C7000EB4510017604F56C7000EB451057
:1031D00041762EB9012104F56C7000EB45100171A8
:1031E0002946204600F0EEFF0020BDE8F0870000F1
:1031F0002DE9F04F87B006468A4693461D462C4679
:103200000027B84600BF2878307068787070A978B9
:10321000E87801EB0020708028793071687970714E
:10322000A879B071E879F071287A3072109809287D
:1032300070DD092001903079022862DC00200690C0
:1032400059E001A92046FFF70BF9044660780428ED
:1032500051D1A07847B207EBC70050440690E07800
:10326000032848DA214603A800F0ABF84FF0000825
:103270009DF81000022838DC32E001A92046FFF753
:10328000EFF80446607805282AD10BEB071000EB15
:10329000C800029020480078B84206D01E490F703E
:1032A00003A9069800F08DF80CE02179607901EB14
:1032B00000201A490988884200DA15E003A9069817
:1032C00000F07FF82146029800F056F821796079E5
:1032D00001EB00201149088008F101004FFA80F845
:1032E0009DF810004045C8DC05E04FF00309484652
:1032F00007B0BDE8F08F7088BDF804108842A0DCEC
:1033000003E04FF003094846F2E700200349088034
:10331000014908700020EBE7F8000020F6000020CB
:1033200010B50B7803704B7843708C78CB7804EB36
:10333000032343800B7903714B7943718B7983713C
:10334000CB79C371082A16DD0C7A4B7A04EB032380
:1033500003818C7ACB7A04EB032343810C7B4B7B78
:1033600004EB032383818B7B8373CB7BC3730B7C45
:1033700003744B7C437410BD0A7802704A78427023
:103380008A788270CA78C2700B794A7903EB02227C
:1033900082808A79827170470A7802704A78427016
:1033A0008B78CA7803EB022242800A7902714A794B
:1033B00042718A798271CB790A7A03EB0222028107
:1033C00070470A7802704A7842708A788270CA78A8
:1033D000C2700A7902714A7942718A798271CA7916
:1033E000C2710A7A0272704730B513464578032DD0
:1033F00014D10578AD1E9D4202DC0578AD1E00E0BB
:103400001D46ACB2801C002204E0855C0D70491C96
:10341000951CAAB2A242F8DB00250D7030BD014612
:103420000022C1F814230020704701460122C1F890
:103430001423002070473EB505460C46022002903A
:103440002846FDF73DF918B12846FDF73DF930B99A
:10345000207820B12078032801D003202070207824
:103460000D287BD2DFE800F0071822ADC95F7B8D05
:10347000996BC9C99E002846FDF722F958B1012071
:103480002070642000F0DEFB2846FDF721F9D4F817
:103490008010C8688047B1E0D5F81403012804D132
:1034A00002202070322000F0CDFBA7E0D4F880107D
:1034B0008868804700212846FEF74BFE6071802116
:1034C0002846FEF746FE20712846FDF701F948BB65
:1034D000D4F88010C86880472846FDF7B2F8C1B21A
:1034E00021200155052020702122105DD4F8802074
:1034F00091698847A0790021CDE900102120035D62
:1035000094F8202021792846FFF724FEA079002195
:10351000CDE900102120035D94F820206179284630
:10352000FFF718FE6AE021462846FFF73FFC28B95E
:10353000D4F88010486B8047092020705EE0D4F8F2
:103540008010886B8047012807D1E06F2146026810
:103550002846904708B9062020704FE04DE0E06F04
:10356000214682682846904702909DF8080010B9CD
:103570000720207004E09DF808102046FEF714FF95
:103580003CE0E06F2146C2682846904702909DF8D3
:1035900008102046FEF708FF30E021462846FFF7D6
:1035A000EFFA2BE021462846FEF7CDFED4F8801036
:1035B00048688047E06F04F1200142682846904740
:1035C0001CE0D4F880100869804721462846FEF7A1
:1035D000BAFED4F8801048688047E06F04F12001FB
:1035E0004268284690472846FEF79FFE002020703C
:1035F00001212846FDF734F800E000BF00BF3EBDC2
:1036000001460020704770B506460C46154600215D
:10361000217505216175E5820021218361830023E5
:103620001A4621463046FEF7F6FD70BD70B50646D7
:103630000C4615460021217509216175E58200219E
:103640002183618300231A4621463046FEF7E3FDBD
:1036500070BD2DE9F04107460C4615461E46212156
:1036600021750A21617546EA0521E1820021218345
:10367000618300231A4621463846FEF7CCFDBDE89B
:10368000F08170B506460C461546212121750B21A7
:10369000617515B10021E18201E00121E182002183
:1036A0002183618300231A4621463046FEF7B3FD8D
:1036B00070BD10B5034618785870082018709960CE
:1036C0009A8101241C77002010BD00002DE9F041F3
:1036D00006460C46174625466879082807D14FF656
:1036E000FF7009490880094802F0D2F809E06879BA
:1036F000032806D14FF6FF7003490880044802F002
:10370000C7F8BDE8F08100006000002055600008A7
:10371000766000087047704710B54FF6FF70034998
:103720000880034802F0B4F810BD000060000020DB
:10373000A85F000810B50020FDF700FD0020FDF790
:1037400017FDFDF7F1FA80235A22DC216420FDF7F2
:10375000C1FA4FF6FF70FDF70BFD0BA1C620FDF778
:10376000BBF909A1D220FDF7B7F94FF478400F4912
:1037700008800FA002F08CF80F4802F089F84FF68D
:10378000FF700A49088010BD202020202020202022
:103790002020202020202020202020202020202029
:1037A0002020202020202020202020006000002039
:1037B0004552524F523A2000BB5F000810B54FF6F9
:1037C000FF700349088003A002F062F810BD0000FA
:1037D000600000203E20446576696365206E6F744A
:1037E00020737570706F727465642E0A000000009B
:1037F00010B504463CB94FF6FF70114908801148D6
:1038000002F046F81AE0012C07D14FF6FF700C4980
:1038100008800D4802F03CF810E0022C07D14FF66A
:10382000FF7007490880094802F032F806E04FF6B9
:10383000FF7003490880064802F02AF810BD000016
:1038400060000020EB5F00080960000827600008A6
:103850004460000830B58DB0044625462A890CA185
:10386000684602F025F84FF6FF700D49088068465B
:1038700002F00EF86A890BA1684602F019F84FF6BB
:10388000FF7007490880684602F002F80DB030BDAD
:10389000564944203A2025303458680A0000000078
:1038A00060000020504944203A2025303458680AEE
:1038B0000000000010B54FF6FF700B4908800B4860
:1038C00001F0E6FF4FF4FC60FDF752FC08A1C620B2
:1038D000FDF702F90FA1D220FDF7FEF84FF6FF70B9
:1038E000FDF746FC10BD000060000020D25F00081C
:1038F000546F207374617274207468652048494461
:1039000020636C617373206F7065726174696F6E90
:10391000733A200050726573732054616D70657244
:103920002E2E2E202020202020202020202020206D
:1039300020202020202020202020000010B5144826
:103940000078002823D10120114908700020FEF7DB
:10395000CDF80120FEF7CAF80220FEF7C7F80320D1
:10396000FEF7C4F800210220FEF7F0F8FEF7B4F8E5
:10397000FDF720FA07A0FDF757FA4FF6FF700B4945
:1039800008800BA001F084FF11A0FDF71AFA10BD0A
:103990005400002020555342204F544720465320C6
:1039A00048494420486F7374000000006000002004
:1039B0003E2055534220486F7374206C69627261D7
:1039C000727920737461727465642E0A00000000BD
:1039D000202020202055534220486F7374204C69CA
:1039E00062726172792076322E322E300000000031
:1039F00010B59AB00446224606A101A801F058FF6E
:103A00004FF6FF700849088001A801F041FF1AB085
:103A100010BD00004D616E756661637475726572EC
:103A2000203A2025730A00006000002010B54FF4F2
:103A300078400649088006A001F02AFF06A001F0A0
:103A400027FF4FF6FF700149088010BD600000207D
:103A50004552524F523A20004F766572637572722A
:103A6000656E742064657465637465642E0A000075
:103A700010B59AB00446224606A101A801F018FF2D
:103A80004FF6FF700749088001A801F001FF1AB046
:103A900010BD000050726F64756374203A20257366
:103AA0000A000000600000207047000010B59AB0C6
:103AB0000446224606A101A801F0FAFE4FF6FF7067
:103AC0000849088001A801F0E3FE1AB010BD00000B
:103AD00053657269616C204E756D626572203A2083
:103AE00025730A006000002010B54FF478400649A5
:103AF000088006A001F0CCFE064801F0C9FE4FF692
:103B0000FF700149088010BD600000204552524FEF
:103B1000523A2000C760000810B500240220FEF7CA
:103B200005F800B90124204610BD000038B5044650
:103B300001211020FDF77EFE4FF40070ADF800006B
:103B400003208DF8020010208DF803006946064816
:103B5000FCF78CFC4FF400710348FCF766FDC820AD
:103B600000F070F838BD00000010014070B5054647
:103B70000C462CB94FF400710448FCF756FD04E0E4
:103B80004FF400710148FCF74EFD70BD001001407C
:103B900038B504464FF4C060FDF7FEFD43208DF8B4
:103BA000000001208DF8010003208DF802000120A3
:103BB0008DF803006846FDF7B7FD38BD10B5044623
:103BC0000020FDF71FFF01210803FDF703FE00F0B1
:103BD00001F810BD08B500214FF00060FDF7E6FDCB
:103BE0004FF4A060FDF7D8FD1C208DF800000120E7
:103BF0008DF801008DF802008DF803006846FDF78E
:103C000093FD01210846FDF7F5FD08BD10B5012122
:103C10008807FEF7DEF888B101218807FEF7CAF8A9
:103C20000748006828B106480068401E044908603B
:103C300004E000214FF08040FEF7BFF810BD000007
:103C40000400002010B5044601212046FCF72AFBA1
:103C500010BD10B5044602212046FCF723FB10BD21
:103C60003EB5044600250020029001900090207A85
:103C700001283DD1E068806B0190019820F48030EC
:103C80000190607A28B1019820F4801000F580102E
:103C900001900198E168886300200290E068C068A4
:103CA0000290029820F040000290029820F48000D8
:103CB0000290029820F400300290029820F4002034
:103CC00002900298E168C860204600F0C7F8E078EA
:103CD000012843D1009820F01E000A30009000987F
:103CE00020F02000203000900098E168886035E0E6
:103CF000E068C0680290029820F0400040300290D6
:103D00000298E168C860204600F0A8F80020019001
:103D1000019820F4803000F580300190019820F463
:103D2000802000F580200190019820F4002000F50B
:103D300000200190019820F4001000F5001001907F
:103D4000607A28B1019820F4801000F5801001906D
:103D50000198E16888631420FFF774FFE078012878
:103D60000FD1E06880680090009820F01E000A30B3
:103D70000090009820F02000203000900098E1682A
:103D8000886028463EBDFEB504460026002500207A
:103D90000290019000902046FFF7C8FE0021D4F861
:103DA0000C010160207A012803D1204600F021FC9B
:103DB00003E00121204600F01CFC204600F06FFCCF
:103DC000606900680090009820F00400009000995D
:103DD00060690160E07A01281DD18020E1684862B5
:103DE00002986FF30F0080300290029880B200F5C5
:103DF000C00002900298E168886201986FF30F009A
:103E0000E0300190019880B200F5C0000190019867
:103E1000E168C1F800011021204600F029F9204690
:103E200000F000F900250DE04FF0FF3104F19000A3
:103E300050F825008160002104F1900050F8250021
:103E4000C1606D1C2078A842EED80121204600F008
:103E50004EF8204600F0A4F83046FEBDF8B5044602
:103E6000002600250020009000BF0320FFF7F1FE90
:103E7000E06800690090681C05461349884201D932
:103E80000020F8BD0098C00F0028EED00025009853
:103E900020F00100401C00900098E168086100BF1C
:103EA000E06800690090681C05460749884200D90F
:103EB00004E0009800F001000028F1D100BF0320C9
:103EC000FFF7C7FE3046DCE7400D030008B50146AA
:103ED000002000220092009A22F00102521C00925F
:103EE000CA689268009B9A43CB689A6008BD38B54F
:103EF00005460C460020009021462846FFF736FE76
:103F0000284600F09CFB00900098C0F3003058B9A0
:103F1000012C09D1009820F4805000F580500090C9
:103F20000099D5F8CC0001600098C0F3003040B192
:103F30003CB9009820F4805000900099D5F8CC004E
:103F40000160C820FFF77EFE38BD08B50021009152
:103F5000491EC26851606FF08041C268516100998A
:103F600021F0004101F100410091009921F400612C
:103F700001F5006100910099C268916108BD08B522
:103F80000146002000220092009A22F00102521CF9
:103F90000092CA689268009B1A43CB689A6008BD79
:103FA00038B50446002500200090E1688861401E75
:103FB000E16848612046FFF7C8FFE07820B9009823
:103FC00020F0100010300090009820F4001000F550
:103FD00000100090009820F0007000F10070009038
:103FE000009820F0807000F180700090E068806997
:103FF000009988430843E168886100200090009898
:1040000020F0005000F100500090009820F00800CF
:1040100008300090E068806900998843E168886111
:10402000284638BDF8B5044600250026002000903B
:10403000009820F01000103000900098E1680861AE
:1040400000BFE06800690090701C0646074988427E
:1040500000D904E00098C0F300100028F1D100BF9F
:104060000320FFF7F6FD2846F8BD0000400D0300D1
:10407000F8B504460D460026002700200090009861
:1040800020F0200020300090009865F38A10009006
:104090000098E168086100BFE06800690090781C42
:1040A00007460749884200D904E00098C0F3401051
:1040B0000028F1D100BF0320FFF7CBFD3046F8BD4B
:1040C000400D03000146C868406900F001007047D8
:1040D0001CB50246002000230093009B23F0004300
:1040E00003F1004300930124009B64F3DC4300933D
:1040F00002F1900353F82130009C1C6102F19003FF
:1041000053F821301B680193019B23F0004303F116
:1041100000430193019B23F08043019302F190033C
:1041200053F82130019C1C601CBD10B586B00246BE
:10413000002000230393019302F1900353F82130F0
:104140001B680093009B23F0804303F1804300939E
:10415000009BC3F3814323B1009BC3F38143022B34
:1041600011D1D368DB6A0393039BC3F30743DBB925
:10417000009B23F00043009302F1900353F8213099
:10418000009C1C6010E053691B690193019BC3F301
:1041900007434BB9009B23F00043009302F19003C7
:1041A00053F82130009C1C60009B23F0004303F176
:1041B0000043009302F1900353F82130009C1C60EF
:1041C00006B010BD3FB50246002000230024029433
:1041D00003940194441E009402F1900454F8214089
:1041E000009DA56000240394D478012C04D1039C85
:1041F00024F00404241D039402F56C7404EB4114B0
:10420000647934B1012C6AD0022C03D0032C38D14C
:1042100038E000BF039C24F00104641C0394039C59
:1042200024F0080408340394039C24F080048034B0
:104230000394039C24F4806404F580640394039C39
:1042400024F010041034039402F56C7404EB411450
:10425000A47834B1039C24F4807404F5807403942E
:104260000FE0039C24F040044034039402F56C7486
:1042700004EB4114247924B1039C24F0200420345D
:1042800003944EE0039C24F00104641C0394039CFB
:1042900024F0100410340394039C24F00804083420
:1042A0000394039C24F0800480340394039C24F43E
:1042B000806404F580640394039C24F4007404F582
:1042C0000074039402F56C7404EB4114A4782CB1CF
:1042D000039C24F4807404F58074039421E0039C0F
:1042E00024F00104641C0394039C24F4007404F57A
:1042F00000740394039C24F020042034039402F5FA
:104300006C7404EB4114A47854B1039C24F0800431
:1043100080340394039C24F4807404F58074039423
:1043200000BF00BF02F1900454F82140039DE560F6
:10433000012404FA01F35469A4691C435569AC6172
:10434000029C24F0007404F100740294D468A469FF
:10435000029D2C43D568AC610024019402F56C7475
:1043600004EB41142578019C65F39C54019402F5FB
:104370006C7404EB41146578019C65F3CE240194C0
:1043800002F56C7404EB4114A578019C65F3CF34FD
:10439000019402F56C7404EB4114E478022C01D111
:1043A000012500E00025019C65F35144019402F5CC
:1043B0006C7404EB41146579019C65F3934401949A
:1043C00002F56C7404EB4114E588019C65F30A0462
:1043D000019402F56C7404EB41146479032C05D14B
:1043E000019C24F0005404F10054019402F1900463
:1043F00054F82140019D256004B030BD2DE9F04303
:1044000088B004460D464FF00009C8464FF4807747
:10441000002006900790009004F56C7000EB4510AA
:10442000006910B304F56C7000EB4510016904F5E8
:104430006C7000EB4510C0880144491E04F56C7097
:1044400000EB4510C088B1FBF0F086B2BE420DDD36
:104450003E4604F56C7000EB4510C188714304F5CD
:104460006C7000EB4510016100E0012604F56C70F2
:1044700000EB4510807850B104F56C7000EB4510EE
:10448000C188714304F56C7000EB4510016104F5BF
:104490006C7000EB45100169069861F312000690FC
:1044A000069866F3DC40069004F56C7000EB45104E
:1044B000017A069861F35E70069004F1900050F85E
:1044C000250006990161E078012809D104F56C7096
:1044D00000EB4510C16804F1900050F825004161DF
:1044E00004F1900050F8250000680790204600F085
:1044F0008CF8079960F35D710791079820F00040F0
:1045000000F100400790079820F08040079004F1E8
:10451000900050F8250007990160E078002864D1E8
:1045200004F56C7000EB4510807800285DD104F52F
:104530006C7000EB45100069002856D004F56C70D3
:1045400000EB4510407930B1012821D0022803D07A
:10455000032839D11BE000BFE068C06A039004F56E
:104560006C7000EB45100069C01CC0F38F08039805
:1045700080B240450ADA009820F0200020300090F8
:10458000E068806900990843E16888611DE000BF28
:1045900060690069019004F56C7000EB45100069DA
:1045A000C01CC0F38F08019880B240450BDA009818
:1045B00020F0806000F180600090E06880690099E0
:1045C0000843E168886100E000BF00BF04F56C703B
:1045D00000EB4510008A83B204F56C7000EB4510C7
:1045E0002A46C168204600F0EFFF484608B0BDE803
:1045F000F08308B5426912680092009A61F30102E3
:104600000092009B4269136008BD014648698068BA
:1046100000F0010080F00100704700B5024610462E
:10462000FFF750FD012800D100BD0020FCE7014646
:104630000020CA685069CA6892691040704708B57E
:104640000146D1F8CC0000680090009820F00400EA
:104650000090009820F002000090009820F00800E0
:104660000090009820F020000090009808BD0146BE
:10467000486940697047F0B503460024D01CC7174D
:1046800000EB9777BD10D3F8D06000BF03E030682F
:104690000860091D641CAC42F9D30846F0BD38B56A
:1046A00004462046FFF7CBFF0090009820F480706E
:1046B00000F5807000900099D4F8CC00016064206F
:1046C000FFF7C0FA009820F4807000900099D4F8A9
:1046D000CC0001601420FFF7B5FA012038BD0000BE
:1046E00070B502460C46002300200025D570012538
:1046F000957040259580012C0CD14FF0A0430125E9
:10470000D57208251570042555709D15D580022594
:1047100015720AE04CB9254B0025D5720C25157091
:10472000062555704FF4A065D580D36003F500656C
:104730001561002110E003F5106505EB411602F14B
:10474000180545F8216003F5306505EB411602F1C7
:10475000540545F82160491C55788D42EBD803F586
:10476000806555614035C2F8CC50002108E003F562
:10477000A06505EB411602F1900545F82160491C42
:1047800015788D42F3D8002108E003F5805505EB3C
:10479000013602F1D00545F82160491C15788D429B
:1047A000F3D803F56065C2F80C5170BD00000440F9
:1047B000F8B504460D460026E068C06800900098F1
:1047C00020F000500090009820F080400090012DD3
:1047D00006D1009820F0005000F10050009006E053
:1047E0002DB9009820F0804000F1804000900098A2
:1047F000E168C8603220FFF725FA3046F8BD0000B6
:1048000038B50446002000900748006881682046BB
:104810008847009820F0005000F100500090009868
:10482000E1684861012038BDEC0000200CB501466C
:10483000D1F8900000680090009820F0004000F14E
:1048400000400090009820F0804000F180400090EF
:10485000009AD1F89000026000200190019820F4A5
:10486000001000F5001001900198CA685061012005
:104870000CBD7CB50546002400262846FFF7F7FE50
:10488000019000BF1BE0019880B20121A1400840C7
:10489000A0B105F1900050F8240000680090009845
:1048A000C0F3C03028B12146284600F00DF8064379
:1048B00004E02146284600F016FA0643641C2878D6
:1048C000A042E0D830467CBD70B586B005460C46A7
:1048D00005F1900050F82460B0680590F0680490ED
:1048E000DDE904100840059005F1900050F824001F
:1048F00000680390002004900598C0F38000D0B1B8
:1049000000200190019820F00400001D0190019802
:10491000B06005F1900050F82400C0680190019843
:1049200020F00200801C019005F1900050F8240056
:104930000199C16073E00598C0F3401048B10020B0
:104940000190019820F02000203001900198B06083
:1049500065E00598C0F3C00078B305F1900050F809
:104960002400C0680190019820F00200801C019092
:1049700005F1900050F824000199C160052105F56A
:104980006470015500200190019820F01000103053
:1049900001900198B06000200190019820F008007B
:1049A000083001900198B060059820F01000059043
:1049B000E1B22846FFF7B9FB31E0FFE70598C0F305
:1049C000802060B305F1900050F82400C068019089
:1049D000019820F00200801C019005F1900050F831
:1049E00024000199C160E1B22846FFF79EFB002038
:1049F0000190019820F01000103001900198B060F3
:104A0000082105F56470015500200190019820F4FB
:104A1000806000F5806001900198B06000BF05984B
:104A2000C0F34020F8B105F1900050F82400C068B0
:104A30000190019820F00200801C019005F1900087
:104A400050F824000199C160E1B22846FFF76DFBE0
:104A500000200190019820F4007000F50070019092
:104A60000198B0603CE1059800F00100002871D089
:104A7000E878012812D105F1900050F8240000696F
:104A8000029005F56C7000EB441000690299C1F3C7
:104A90001201411A05F5557040F82410012105F561
:104AA000647001550021783840F8241000200190EE
:104AB000019820F00100401C01900198B06003981B
:104AC000C0F3814020B10398C0F3814002282AD16D
:104AD00005F1900050F82400C0680190019820F082
:104AE0000200801C019005F1900050F8240001990B
:104AF000C160E1B22846FFF718FB00200190019841
:104B000020F01000103001900198B06005F56C7035
:104B100000EB4410007E80F0010105F56C7000EBA5
:104B200044100176DCE00398C0F38140032899D15A
:104B3000039820F0005000F10050039005F1900020
:104B400050F8240003990160012105F29F300155BE
:104B5000C6E0FFE70598C0F34000002851D005F1FA
:104B6000900050F82400C0680190019820F00200E5
:104B7000019005F1900050F824000199C16005F5FD
:104B80006470005D012804D1012105F29F300155B8
:104B90002DE005F56470005D052804D1042105F2BF
:104BA0009F30015523E005F56470005D062804D0B0
:104BB00005F56470005D082808D1002105F54670F0
:104BC00040F8241003218730015510E00398C0F30A
:104BD000814003280BD105F56C7000EB4410007E7A
:104BE00080F0010105F56C7000EB441001760020A7
:104BF0000190019820F00200801C01900198B060A3
:104C00006EE00598C0F3C01010B305F1900050F8A5
:104C10002400C0680190019820F00200801C0190DF
:104C200005F1900050F824000199C160062105F5B6
:104C300064700155E1B22846FFF777FA0020019031
:104C4000019820F08000803001900198B06047E02A
:104C50000598C0F30010E0B30398C0F38140032827
:104C600016D105F1900050F82400C0680190019819
:104C700020F00200801C019005F1900050F8240003
:104C80000199C160E87818B9E1B22846FFF74DFAFA
:104C9000032105F56470015500200190019820F072
:104CA0001000103001900198B0600398C0F381406B
:104CB00020B10398C0F38140022811D1039820F05D
:104CC000004000F100400390039820F080400390E2
:104CD00000E005E005F1900050F824000399016020
:104CE000012006B070BD7FB505460C4605F1900069
:104CF00050F82460B0680390F0680290DDE902107B
:104D00000840039005F1900050F8240000680190DD
:104D10000398C0F38000D0B100200090009820F0EC
:104D20000400001D00900098B06005F1900050F85C
:104D30002400C0680090009820F00200801C0090C1
:104D400005F1900050F824000099C160A4E1039897
:104D5000C0F3401048B100200090009820F02000DF
:104D6000203000900098B06096E10398C0F3402096
:104D7000F8B105F1900050F82400C0680090009848
:104D800020F00200801C009005F1900050F82400F3
:104D90000099C160E1B22846FFF7C7F900200090F2
:104DA000009820F4007000F5007000900098B0604A
:104DB00072E1039800F0010038B3002105F5467058
:104DC00040F8241005F1900050F82400C0680090CD
:104DD000009820F00200801C009005F1900050F82F
:104DE00024000099C160E1B22846FFF79EF9002037
:104DF0000090009820F00100401C00900098B060E6
:104E0000012105F56470015546E10398C0F3C00027
:104E100010B300200090009820F0080008300090A7
:104E20000098B06005F1900050F82400C068009030
:104E3000009820F00200801C009005F1900050F8CE
:104E400024000099C160E1B22846FFF76EF9052100
:104E500005F5647001551FE10398C0F3001048B3D5
:104E6000002105F5467040F8241005F1900050F837
:104E70002400C0680090009820F00200801C009080
:104E800005F1900050F824000099C160E87818B945
:104E9000E1B22846FFF749F900200090009820F081
:104EA0001000103000900098B060032105F5647088
:104EB0000155F1E00398C0F3C01010B305F1900064
:104EC00050F82400C0680090009820F00200801C78
:104ED000009005F1900050F824000099C160E1B203
:104EE0002846FFF722F9062105F5647001550020D8
:104EF0000090009820F08000803000900098B06012
:104F0000CAE00398C0F3801048B3002105F546704D
:104F100040F8241005F1900050F82400C06800907B
:104F2000009820F00200801C009005F1900050F8DD
:104F300024000099C160E87818B9E1B22846FFF76B
:104F4000F4F800200090009820F0400040300090DD
:104F50000098B060042105F5647001559CE0039849
:104F6000C0F3802060B305F1900050F82400C068C1
:104F70000090009820F00200801C009005F1900045
:104F800050F824000099C160E1B22846FFF7CDF83F
:104F900000200090009820F0100010300090009841
:104FA000B060082105F5647001550020009000985C
:104FB00020F4806000F5806000900098B0606BE0A5
:104FC0000398C0F34000002866D005F1900050F827
:104FD0002400C0680090009820F00200009005F1C5
:104FE000900050F824000099C16005F56470005DE0
:104FF000012815D1012105F29F3001550198C0F318
:10500000814002283ED105F56C7000EB4410407ED3
:1050100080F0010105F56C7000EB4410417631E041
:1050200005F56470005D032804D1022105F29F306C
:10503000015527E005F56470005D04280FD105F5E2
:105040006C7000EB44100079012803D1E1B22846CE
:10505000FFF73EF8022105F29F30015512E005F5F9
:105060006470005D052804D1042105F29F300155CC
:1050700008E005F56470005D062803D1032105F200
:105080009F30015500200090009820F00200801C05
:1050900000900098B06000BF012004B070BD7FB5E3
:1050A0000446E068C06A00900198C0F3C30104F5AB
:1050B0006C7000EB41100069C01CC0F38F0673E0F8
:1050C0004FF6FF71009801EA80050198C0F3C30113
:1050D00004F56C7000EB41100069A84215D20198EC
:1050E000C0F3C30104F56C7000EB4110008A85B277
:1050F00000200390039820F0200020300390E06807
:10510000806903998843E16888610198C0F3C3010D
:1051100004F56C7000EB41100069C01CC0F38F06F1
:105120000198C0F3C302C0F3C30304F56C7000EB35
:1051300043102B46C168204600F046FA0198C0F3A0
:10514000C30104F56C7000EB4110C068411901986F
:10515000C0F3C30204F56C7000EB4210C16001980B
:10516000C0F3C30104F56C7000EB41100069411BF2
:105170000198C0F3C30204F56C7000EB42100161AA
:105180000198C0F3C30104F56C7000EB4110406955
:1051900041190198C0F3C30204F56C7000EB421092
:1051A0004161E068C06A0090009880B2B0420ADDB8
:1051B0000198C0F3C30104F56C7000EB4110006965
:1051C00000287FF47DAF012004B070BD7FB5044698
:1051D000002500200090019003900290D4F8CC00AC
:1051E00000680390D4F8CC0000680290029820F088
:1051F00004000290029820F002000290029820F031
:1052000008000290029820F0200002900398C0F35A
:10521000400058B1029820F00200801C02903948EA
:10522000006841682046884745F001050398C0F3AF
:10523000C000002853D0029820F0080008300290E7
:105240000398C0F38000002844D00398C0F3414085
:10525000022804D00398C0F34140012825D1606999
:10526000006801900398C0F3414002281DD141F22B
:10527000707160694160019800F00300022814D049
:10528000207A022804D102212046FFF7B2F90CE06F
:105290004BF6803160694160019800F003000128FD
:1052A00003D001212046FFF7A4F916480068C16821
:1052B0002046884700200090009820F0005000F120
:1052C00000500090E0688069009988430843E168D5
:1052D000886104E00B48006801692046884703980C
:1052E000C0F3401030B1029820F02000203002902E
:1052F00045F001050299D4F8CC000160284604B0BD
:1053000070BD0000EC000020FEB504466069006935
:1053100000900198C0F3C30104F56C7000EB4110DC
:105320000069C01CC0F38F0674E04FF6FF7100984F
:1053300001EA80050198C0F3C30104F56C7000EB2D
:1053400041100069A84216D20198C0F3C30104F5C8
:105350006C7000EB4110008A85B200200290029828
:1053600020F0806000F180600290E068806902991E
:105370008843E16888610198C0F3C30104F56C704B
:1053800000EB41100069C01CC0F38F060198C0F308
:10539000C302C0F3C30304F56C7000EB43102B464B
:1053A000C168204600F010F90198C0F3C30104F56C
:1053B0006C7000EB4110C06841190198C0F3C30242
:1053C00004F56C7000EB4210C1600198C0F3C3019A
:1053D00004F56C7000EB41100069411B0198C0F3AB
:1053E000C30204F56C7000EB421001610198C0F338
:1053F000C30104F56C7000EB41104069411901983C
:10540000C0F3C30204F56C7000EB421041616069A7
:1054100000690090009880B2B0420ADD0198C0F3A4
:10542000C30104F56C7000EB4110006900287FF4A3
:105430007CAF0120FEBD30B585B004460020009051
:105440000390039820F0100010300390E06880690A
:1054500003998843E1688861E068006A04900498D1
:1054600000F00F00009004F190009DF8001050F83B
:105470002100006801900498C0F34340022806D040
:10548000032878D0052877D0072873D175E00498D1
:10549000C0F30A10002869DD04F56C709DF8001057
:1054A00000EB4110C068002860D00498C0F30A12D5
:1054B00004F56C709DF8003000EB4310C168204685
:1054C000FFF7D9F8049800F00F0104F56C7000EBB9
:1054D0004110C0680499C1F30A110144049800F016
:1054E0000F0204F56C7000EB4210C160049800F0EC
:1054F0000F0104F56C7000EB411040690499C1F391
:105500000A110144049800F00F0204F56C7000EBDE
:105510004210416104F56C709DF8001000EB4110E1
:10552000456904F555709DF8001040F8215004F1CC
:1055300090009DF8001050F8210000690290029838
:10554000C0F3C940002811DD019820F0004000F1AF
:1055500000400190019820F08040019004F19000FB
:105560009DF80020019950F82200016006E002E059
:1055700002E0FFE700BF00BF00BF00BF00BF03980D
:1055800020F0100010300390E06880690399084310
:10559000E1688861012005B030BD000038B50446DF
:1055A000002000900748006801682046884700985E
:1055B00020F00800083000900098E1684861012060
:1055C00038BD0000EC0000202DE9F0410446002623
:1055D000E078B0B900270020DD1C4FEAE57805EB44
:1055E00098784FEAA80704F1D00555F822C000BF0B
:1055F00004E00D68CCF80050091D401CB842F8D3F7
:1056000000BF3046BDE8F08110B54FF6FF7013497A
:105610000880134800F03CF94FF6FF700F490880EE
:1056200010A000F035F94FF6FF700C49088017A064
:1056300000F02EF917A1C620FBF74EFA15A1D220D3
:10564000FBF74AFA4FF4FC60FBF792FD78201A4909
:10565000087040F23F101949088010BD600000201A
:10566000A96000083E20557365204B6579626F6123
:10567000726420746F207461706520636861726168
:1056800063746572733A200A0A0000000A0A0A0A63
:105690000A0A000020202020202020202020202076
:1056A00020202020202020202020202020202020FA
:1056B0002020202020202000080000200A000020B8
:1056C00010B504460A2C09D140F23F102349088046
:1056D000234800780C30224908703DE00D2C23D17E
:1056E0001E48008840F23F11884210D11C480078C3
:1056F000782803D10846194908800DE01848007839
:105700000C38174908700F201449088004E013482A
:10571000008808301149088020221048018810486C
:105720000078FBF7C1F917E022460C4801880C48C5
:105730000078FBF7B9F9094800880838074908805C
:1057400008460088072807D140F23F100880044827
:1057500000780C300249087010BD00000A000020DB
:105760000800002010B54FF6FF701E4908801E4843
:1057700000F08EF84FF6FF701A4908801BA000F069
:1057800087F81DA1C620FBF7A7F91BA1D220FBF7C4
:10579000A3F980235A22DC216420FBF79BFA002026
:1057A000FAF7D4FF0120FAF7D1FF0220FAF7CEFF73
:1057B0004FF4FC60FBF7DCFC0020FBF7BFFC782219
:1057C000DB216520FBF770F900201449088014499B
:1057D0000880144908801449088000210846FAF717
:1057E000DDFF10BD600000208E6000080A0A0A0A72
:1057F0000A0A0A0A00000000202020202020202081
:105800002020202020202020202020202020202098
:1058100020202020202020202020200058000020B0
:105820005A0000205C0000205E00002070B5054694
:105830000124287838B1687828B16A7851B22A787A
:1058400050B2FAF7ABFF00241AE0E9780120A0403B
:10585000014049B10C48005D80B92046FAF74FFF7E
:1058600001200949085509E00748005D012805D1D4
:105870002046FAF76BFF002003490855601CC4B2AC
:10588000032CE2DB70BD00005500002000BFFEE7E6
:105890000FB4054B10B503A9044A029800F02CF888
:1058A00010BC5DF814FB0000895D00084401002075
:1058B0000FB4084B10B504A902AA039800F01CF815
:1058C000044602A9002000F048FA204610BC5DF80A
:1058D00014FB00005B5D000802E008C8121F08C14D
:1058E000002AFAD170477047002001E001C1121F61
:1058F000002AFBD1704700002DE9FF4F8DB00F4605
:105900000546002606E025280BD0DDE90F1290475A
:105910006D1C761C28780028F5D111B03046BDE802
:10592000F08F0024A246A1460122EC4900E0044386
:1059300015F8013F203B02FA03F00842F7D128781E
:105940002A2810D06FF02F022878A0F13001092901
:1059500014D80AEB8A0102EB410144F0020400EB87
:10596000010A6D1CF0E701CF5FEA000A03D544F499
:105970000054CAF1000A44F002046D1C28782E2855
:1059800017D115F8010F44F004042A280ED06FF047
:105990002F022878A0F1300109290AD809EB8901E2
:1059A00002EB410100EB01096D1CF2E757F8049B83
:1059B0006D1C28786C280FD006DC4C2817D068287E
:1059C0000DD06A2814D104E0742810D07A280FD1A1
:1059D0000DE044F400140AE044F4801401E044F4BF
:1059E00040146978814202D104F580146D1C6D1C4D
:1059F0002A786E2A1FD00CDC632A31D004DC002AFE
:105A00008BD0582A11D1A3E0642A68D0692A0CD11E
:105A100065E0732A2ED004DC6F2A73D0702A04D17B
:105A20009BE0752A6FD0782A6ED01046DDE90F1200
:105A30009047761C50E1C4F30250022806D0032898
:105A400009D0042801CF09D0066045E101CFF11744
:105A5000C0E9006140E101CF06803DE106703BE115
:105A600017F8040B8DF8000000208DF80100EB46BC
:105A7000012003E057F804BB4FF0FF3061074FF0FF
:105A8000000102D40DE008F10101884649450FDA12
:105A90008045F8DB1BF808100029F4D108E008F174
:105AA000010188468142FADB1BF808100029F6D173
:105AB000DDE90F23AAEB08008146214600F036F904
:105AC000304400EB080604E0DDE90F121BF8010B7F
:105AD0009047B8F10108F7D221464846F7E00A217D
